:08000000020090E5020201C9B3
:05001300E5080201C92F
:05005300E5100201C9E7
:05005B00E5200201C9CF
:10009000E540B400051200B880F6B401051200F77F
:1000A00080EEB4020512010C80E6B4030512012DA6
:1000B00080DE754000020090753001753101758A4F
:1000C00001758C00758900758E8175A805758F3056
:1000D000758805D2AFD28CD2402040FDC2AFE5B0CA
:1000E00044C3F4B400F8C28CC28D858A20858C216B
:1000F0001201B275400122A820A921E531F5301284
:100100000172120192D530F775400222A820A92170
:10011000E531F5301201721201496B700CD530F4E3
:100120001201B2053175400122754003221201B25D
:10013000E5B054C3F5B01201B2E5B0443CF5B012DD
:1001400001B21201B275400022E5B044C3F460F977
:100150001201AAE430B50E0430B40A0430B2060429
:1001600030B30280E4FCE5B044C3B4FFF91201AA45
:10017000EC227B0012018250020B0B120182500113
:100180000B22C3E833F8E933F95006630011630129
:10019000A022900400EB54039365B0F5B01201B2B5
:1001A000E5B0443CF5B01201AE227F0180067F0528
:1001B00080027F16758E01758A00758CC0D28C30D6
:1001C0008DFDC28DDFF7C28C22C240538FCF53A862
:0201D000FA3201
:0404000020100408BC
:00000001FF
