:10009000E540B400051200B880F6B401051200FD79
:1000A00080EEB4020512011280E6B4030512015875
:1000B00080DE75400002009075300175310175D702
:1000C0000175D600438E145388F543880543A8056F
:1000D000438F30D2AF438701C2AF900226E532543E
:1000E0000393F533E5B0553360FA1201E7538EEF11
:1000F00085D72085D6211201C475400122A820A9E8
:1001000021E531F5301201821201A2D530F7754098
:100110000222A820A921E531F5301201825388F589
:1001200043880543A805438F30D2AF438701C2AF50
:10013000900226E532540393F533E5B0553360FA67
:100140001201E7E5326B700CD530CF1201C40531D6
:1001500075400122754003221201C4E5B054C3F575
:10016000B01201C4E5B0443CF5B01201C4754000C2
:01017000226C
:0900000002017175320202017760
:06001300753203020177C3
:0600530075320102017785
:06005B007532000201777E
:01000B0032C2
:0300630002017E19
:1001710075814F020090538FCF53A8FA3253AFFBD2
:01018100324B
:1002260020100408014002400426061A08150A1187
:100236000C0E0E0C100B120A1409160818071A07D2
:100246001C061E06200622052405260528042A0566
:100256002C042E04300332043404360338033A03E4
:100266003C033E03400342034402460348034A025A
:100276004C024E03500252025403560258025A02CE
:100286005C025E02600262016402660268026A0241
:100296006C016E02700272017402760178027A01B4
:1002A6007C027E01800282018401860288018A0125
:1002B6008C028E01900192029401960198019A0196
:1002C6009C029E01A001A201A401A601A801AA0206
:1002D600AC01AE01B001B201B401B601B801BA0178
:1002E600BC01BE01C001C201C401C801CA01CC01E2
:1002F600CE01D001D201D401D601DA01DC01DE0142
:10030600E001E201E601E801EA01EE01F001F20195
:08031600F401F801FA01FE01F7
:100182007B0012019250020B0B12019250010B22C2
:10019200C3E833F8E933F950066300116301A02282
:1001A200900226EB540393F53362B01201C412019C
:1001B200E722758AF0758CFF800E758A00758CE0D7
:1001C2008006758A00758CB05389FC438901438E81
:1001D20080D2A9439707D2AFD28C438701C28CC287
:1001E200AF5397F8225389FC438902538E7FD2A9D9
:1001F200D2AF9002297DF4ED93FE1DED93F58CFFB5
:10020200E4C3D28C9FF58CE53343870162B0438708
:100212000142B05397F8C28C758A00DEE3DDD8C282
:04022200AFC2A9229C
:00000001FF
