:090000000200907532020201E8D1
:060013007532030201E852
:060053007532010201E814
:06005B007532000201E80D
:030063000201EFA8
:10009000E540B400051200B880F6B401051201096C
:1000A00080EEB4020512011E80E6B403051201675A
:1000B00080DE754000020090753001753101758A4F
:1000C00001758C00758900758E80758805D28C75D8
:1000D000A805758F30D2AF438701C2AF900400E509
:1000E000325403931201B865B044C3F470E11201B5
:1000F000B8E5B044C3F470F6C28CC28D858A208501
:100100008C211201C875400122A820A921E531F5F2
:10011000301201801201A0D530F775400222A820CC
:10012000A921E531F53012018075A805758F30D20F
:10013000AF438702C2AF900400E53254039312012B
:10014000B865B044C3F470E11201B8E5B044C3F43B
:1001500070F6E5326B700CD530CC1201C8053175E4
:10016000400122754003221201C8E5B054C3F5B026
:100170001201C8E5B0443CF5B01201C87540002238
:100180007B0012019050020B0B12019050010B22C8
:10019000C3E833F8E933F950066300116301A02284
:1001A000900400EB54039365B0F5B01201C8E5B0BC
:1001B000443CF5B01201C02275D70075D6FC800E04
:1001C00075D70075D6E0800675D70075D6B043AFF9
:1001D00004438E04439707D2AF438E1043870153E5
:1001E0008EEFC2AF5397F822538FCF53A8FA3253F2
:0301F000AFFB3230
:0404000020100408BC
:00000001FF
