:030000000200906B
:10009000E540B400051200B880F6B401051200DF97
:1000A00080EEB402051200F480E6B40305120115D7
:1000B00080DE754000020090753001753101E5B0B9
:1000C00044C3B4FF0708B800F50980F2E5B044C3A3
:1000D000F4B400F8882089211201A275400122A8F9
:1000E00020A921E531F53012015A12017AD530F7F5
:1000F00075400222A820A921E531F53012015A12DB
:1001000001316B700CD530F41201A205317540013C
:1001100022754003221201A2E5B054C3F5B01201CA
:10012000A2E5B0443CF5B01201A21201A275400054
:1001300022E5B044C3F460F9120192E430B50E0434
:1001400030B40A0430B2060430B30280E4FCE5B0F7
:1001500044C3B4FFF9120192EC227B0012016A50F1
:10016000020B0B12016A50010B22C3E833F8E9338A
:10017000F950066300116301A022900400EB5403C0
:100180009365B0F5B01201A2E5B0443CF5B01201A0
:100190009A227D017E007F0080107D047E007F001A
:1001A00080087D107E007F008000DFFEDEFCDDFA2F
:0101B000222C
:0404000020100408BC
:00000001FF
