:10009000E540B400051200B880F6B4010512010570
:1000A00080EEB4020512011A80E6B403051201685D
:1000B00080DE75400002009075300175310175D702
:1000C0000175D600438E1443A805438F30D2AF4349
:1000D0008701C2AF900236E532540393F533120123
:1000E000BE65B044C3F470DF1201BEE5B044C3F492
:1000F00070F61201F7538EEF85D72085D6211201B5
:10010000CE75400122A820A921E531F53012018CDD
:100110001201ACD530F775400222A820A921E531A3
:10012000F53012018C43A805438F30D2AF438702CC
:10013000C2AF900236E532540393F5331201BE6527
:10014000B044C3F470DF1201BEE5B044C3F470F6EE
:100150001201F7E5326B700CD530C71201CE0531B4
:1001600075400122754003221201CEE5B054C3F55B
:10017000B01201CEE5B0443CF5B01201CE7540009E
:01018000225C
:0900000002009075320202018138
:06001300753203020181B9
:060053007532010201817B
:06005B0075320002018174
:01000B0032C2
:030063000201880F
:0B018100538FCF53A8FA3253AFFB326C
:1002360020100408014002400426061A08150A1177
:100246000C0E0E0C100B120A1409160818071A07C2
:100256001C061E06200622052405260528042A0556
:100266002C042E04300332043404360338033A03D4
:100276003C033E03400342034402460348034A024A
:100286004C024E03500252025403560258025A02BE
:100296005C025E02600262016402660268026A0231
:1002A6006C016E02700272017402760178027A01A4
:1002B6007C027E01800282018401860288018A0115
:1002C6008C028E01900192029401960198019A0186
:1002D6009C029E01A001A201A401A601A801AA02F6
:1002E600AC01AE01B001B201B401B601B801BA0168
:1002F600BC01BE01C001C201C401C801CA01CC01D2
:10030600CE01D001D201D401D601DA01DC01DE0131
:10031600E001E201E601E801EA01EE01F001F20185
:08032600F401F801FA01FE01E7
:10018C007B0012019C50020B0B12019C50010B22A4
:10019C00C3E833F8E933F950066300116301A02278
:1001AC00900236EB540393F53362B01201CE120178
:1001BC00F722758A00758CFC800E758A00758CE0B0
:1001CC008006758A00758CB05389FC438901438E77
:1001DC0080D2A9439707D2AFD28C438E10438701AC
:1001EC00538EEFC28CC2AF5397F8225389FC4389CC
:1001FC0002538E7FD2A9D2AF9002397DF4ED93FEDB
:10020C001DED93F58CFFE4C3D28C9FF58CE5334345
:10021C00870162B043870142B05397F8C28C758A4C
:0A022C0000DEE3DDD8C2AFC2A92254
:00000001FF
