:10009000E540B400051200B880F6B4010512011C59
:1000A00080EEB4020512013180E6B403051201A20C
:1000B00080DE75400002009075B20075B10075CA0F
:1000C0000075C90043BA8090FE017400F000E0752D
:1000D0003001753101758B01758D005389CF438EC9
:1000E00040D28E5388F543880543A805438F30D20C
:1000F000AF438701000000C2AF1202C4E5B0540F45
:10010000FCE5C854F04C553360F2120208C28E85EB
:100110008B20858D211201DC75400122A820A921A8
:10012000E531F530120269120289D530F7754002C7
:1001300022A820A921E531F5307534A51202697491
:10014000A5B5342F5388F543880543A805438F3060
:10015000D2AF438702000000C2AF1202C4E5B05420
:100160000FFCE5C854F04C553360F212020812023D
:100170009D801A8534327534A51202C4E5B0540F3F
:10018000FCE5C854F04C553360F2120208E5326BBE
:10019000700CD530A71201DC053175400122754085
:1001A00003221201DC53B0C353C8C31201DC43B0B5
:0B01B0003C43C83C1201DC75400022FB
:090000000201BB7532020201C1CC
:060013007532030201C179
:060053007532010201C13B
:06005B007532000201C134
:01000B0032C2
:030063000201C8CF
:1001BB0075814F020090538FCF53A8FA3253AFFB88
:1001CB0032758AEF758CFF800E758AFF758CDF8018
:1001DB0006758AFF758CAF5389FC438901438E806A
:1001EB00D2A990FE017480F0D2AFD28C438701006C
:1001FB000000C28CC2AF90FE017400F0225389FC48
:10020B00438902538E7F7522FFD2A9D2AF7DF49022
:10021B0002D2ED93FE1DED93F58CFFE4C390FE012E
:10022B007410F0D28C9FF58CE533438701000000EE
:10023B0062B062C843870100000042B042C890FE22
:10024B00017400F0C28C758A00DED0E5B0540FFC4F
:0E025B00E5C854F04C5222DDB6C2AFC2A92253
:1002CF0020100408014002400426061A08150A11DE
:1002DF000C0E0E0C100B120A1409160818071A0729
:1002EF001C061E06200622052405260528042A05BD
:1002FF002C042E04300332043404360338033A033B
:10030F003C033E03400342034402460348034A02B0
:10031F004C024E03500252025403560258025A0224
:10032F005C025E02600262016402660268026A0297
:10033F006C016E02700272017402760178027A010A
:10034F007C027E01800282018401860288018A017B
:10035F008C028E01900192029401960198019A01EC
:10036F009C029E01A001A201A401A601A801AA025C
:10037F00AC01AE01B001B201B401B601B801BA01CE
:10038F00BC01BE01C001C201C401C801CA01CC0138
:10039F00CE01D001D201D401D601DA01DC01DE0198
:1003AF00E001E201E601E801EA01EE01F001F201EC
:0803BF00F401F801FA01FE014E
:100269007B0012027950020B0B12027950010B220A
:10027900C3E833F8E933F950066300116301A0229A
:100289009002CFEB540393F53362B062C81201DCDC
:1002990012020822E5334222201505753400801622
:1002A900201405753401800E20120575340280066C
:1002B900201304753403227534A5229002CFE53248
:0602C900540393F53322FB
:00000001FF
