:10009000E540B400051200B880F6B401051201175E
:1000A00080EEB4020512012C80E6B4030512019D16
:1000B00080DE75400002009075B20075B10075CA0F
:1000C0000075C90090FE017400F0753001753101B2
:1000D000758B01758D005389CF438E40D28E538826
:1000E000F543880543A805438F30D2AF438701000D
:1000F0000000C2AF1202BFE5B0540FFCE5C854F0D7
:100100004C553360F2120203C28E858B20858D21FF
:100110001201D775400122A820A921E531F530123E
:100120000264120284D530F775400222A820A9216A
:10013000E531F5307534A512026474A5B5342F533A
:1001400088F543880543A805438F30D2AF43870223
:10015000000000C2AF1202BFE5B0540FFCE5C85466
:10016000F04C553360F2120203120298801A853463
:10017000327534A51202BFE5B0540FFCE5C854F047
:100180004C553360F2120203E5326B700CD530A788
:100190001201D7053175400122754003221201D7A3
:1001A00053B0C353C8C31201D743B03C43C83C1239
:0601B00001D7754000229A
:090000000201B67532020201BCD6
:060013007532030201BC7E
:060053007532010201BC40
:06005B007532000201BC39
:01000B0032C2
:030063000201C3D4
:1001B60075814F020090538FCF53A8FA3253AFFB8D
:1001C60032758AEF758CFF800E758AFF758CDF801D
:1001D60006758AFF758CAF5389FC438901538E7F60
:1001E600D2A990FE017480F0D2AFD28C4387010071
:1001F6000000C28CC2AF90FE017400F0225389FC4D
:10020600438902538E7F7522FFD2A9D2AF7DF49027
:1002160002CDED93FE1DED93F58CFFE4C390FE0138
:100226007410F0D28C9FF58CE533438701000000F3
:1002360062B062C843870100000042B042C890FE27
:10024600017400F0C28C758A00DED0E5B0540FFC54
:0E025600E5C854F04C5222DDB6C2AFC2A92258
:1002CA0020100408014002400426061A08150A11E3
:1002DA000C0E0E0C100B120A1409160818071A072E
:1002EA001C061E06200622052405260528042A05C2
:1002FA002C042E04300332043404360338033A0340
:10030A003C033E03400342034402460348034A02B5
:10031A004C024E03500252025403560258025A0229
:10032A005C025E02600262016402660268026A029C
:10033A006C016E02700272017402760178027A010F
:10034A007C027E01800282018401860288018A0180
:10035A008C028E01900192029401960198019A01F1
:10036A009C029E01A001A201A401A601A801AA0261
:10037A00AC01AE01B001B201B401B601B801BA01D3
:10038A00BC01BE01C001C201C401C801CA01CC013D
:10039A00CE01D001D201D401D601DA01DC01DE019D
:1003AA00E001E201E601E801EA01EE01F001F201F1
:0803BA00F401F801FA01FE0153
:100264007B0012027450020B0B12027450010B2219
:10027400C3E833F8E933F950066300116301A0229F
:100284009002CAEB540393F53362B062C81201D7EB
:1002940012020322E533422220150575340080162C
:1002A400201405753401800E201205753402800671
:1002B400201304753403227534A5229002CAE53252
:0602C400540393F5332200
:00000001FF
