:10009000E540B400051200B880F6B4010512010273
:1000A00080EEB4020512011780E6B4030512017553
:1000B00080DE75400002009075B20075B10075CA0F
:1000C0000075C90075300175310175D70175D6000D
:1000D000438E145388F543880543A805438F30D2D7
:1000E000AF438701C2AF12027CE5B0553360FA120C
:1000F00001D2538EEF85D72085D6211201AF7540EE
:100100000122A820A921E531F53012022112024175
:10011000D530F775400222A820A921E531F53075C8
:1001200034A512022174A5B534245388F5438805FB
:1001300043A805438F30D2AF438701C2AF12027C80
:10014000E5B0553360FA1201D2120255801285349F
:10015000327534A512027CE5B0553360FA1201D233
:10016000E5326B700CD530BA1201AF053175400124
:1001700022754003221201AFE5B054C3F5B012015D
:0E018000AFE5B0443CF5B01201AF754000226F
:0900000002018E75320202019426
:06001300753203020194A6
:0600530075320102019468
:06005B0075320002019461
:01000B0032C2
:0300630002019BFC
:10018E0075814F020090538FCF53A8FA3253AFFBB5
:10019E0032758AF0758CFF800E758A00758CE08042
:1001AE0006758A00758CB05389FC438901438E8095
:1001BE00D2A9439707D2AFD28C438701C28CC2AF6C
:1001CE005397F8225389FC438902538E7F7522FF81
:1001DE00D2A9D2AF90028A7DF4ED93FE1DED93F578
:1001EE008CFFE4C3D28C9FF58CE53343870162B05C
:1001FE0062C843870142B042C8C28C758A00DEE2F3
:10020E00E5B044F0FCE5C8440F5C5222DDCBC2AF32
:03021E00C2A92250
:1002870020100408014002400426061A08150A1126
:100297000C0E0E0C100B120A1409160818071A0771
:1002A7001C061E06200622052405260528042A0505
:1002B7002C042E04300332043404360338033A0383
:1002C7003C033E03400342034402460348034A02F9
:1002D7004C024E03500252025403560258025A026D
:1002E7005C025E02600262016402660268026A02E0
:1002F7006C016E02700272017402760178027A0153
:100307007C027E01800282018401860288018A01C3
:100317008C028E01900192029401960198019A0134
:100327009C029E01A001A201A401A601A801AA02A4
:10033700AC01AE01B001B201B401B601B801BA0116
:10034700BC01BE01C001C201C401C801CA01CC0180
:10035700CE01D001D201D401D601DA01DC01DE01E0
:10036700E001E201E601E801EA01EE01F001F20134
:08037700F401F801FA01FE0196
:100221007B0012023150020B0B12023150010B22E2
:10023100C3E833F8E933F950066300116301A022E2
:10024100900287EB540393F53362B062C81201AF99
:100251001201D222E53342222015057534008016A1
:10026100201405753401800E2012057534028006B4
:10027100201304753403227534A522900287E532D8
:06028100540393F5332243
:00000001FF
