:090000000200907532020201D8E1
:060013007532030201D862
:060053007532010201D824
:06005B007532000201D81D
:10009000E540B400051200B880F6B401051201096C
:1000A00080EEB4020512011E80E6B4030512013F82
:1000B00080DE754000020090753001753101758A4F
:1000C00001758C00758900758E81758805D28C75D7
:1000D000A805758F30D2AF438701C2AF900400E509
:1000E000325403931201B965B044C3F470E11201B4
:1000F000B9E5B044C3F470F6C28CC28D858A208500
:100100008C211201C175400122A820A921E531F5F9
:10011000301201811201A1D530F775400222A820CA
:10012000A921E531F5301201811201586B700CD50F
:1001300030F41201C10531754001227540032212CD
:1001400001C1E5B054C3F5B01201C1E5B0443CF5BE
:10015000B01201C175400022E5B044C3F460F91249
:1001600001B9E430B50E0430B40A0430B2060430EC
:10017000B30280E4FCE5B044C3B4FFF91201B9EC6A
:10018000227B0012019150020B0B12019150010BC6
:1001900022C3E833F8E933F950066300116301A084
:1001A00022900400EB54039365B0F5B01201C1E551
:1001B000B0443CF5B01201BD227F0180067F05806E
:1001C000027F16758E01758A00758CC0D28C308DB9
:0F01D000FDC28DDFF7C28C22538FCF53A8FA32B6
:0404000020100408BC
:00000001FF
