:10009000E540B400051200B880F6B4010512010075
:1000A00080EEB4020512011580E6B4030512016367
:1000B00080DE7540000200907532A5753001753103
:1000C0000175D70175D600438E145388F543880512
:1000D00043A805438F30D2AF438701C2AF90026976
:1000E000E532540393F533E5B0553360FA1201C09D
:1000F000538EEF85D72085D62112019D75400122B0
:10010000A820A921E531F530120203120223D530CF
:10011000F775400222A820A921E531F5301202032B
:1001200074A5B5321D5388F543880543A805438F50
:1001300030D2AF438701C2AF900269E532540393D6
:10014000F533E5B0553360FA1201C0E5326B700F3C
:100150007532A5D530C712019D0531754001227554
:1001600040032212019DE5B054C3F5B012019DE594
:0C017000B0443CF5B012019D7540002227
:0900000002017C7532020201824A
:06001300753203020182B8
:060053007532010201827A
:06005B0075320002018273
:01000B0032C2
:030063000201890E
:10017C0075814F020090538FCF53A8FA3253AFFBC7
:10018C0032758AF0758CFF800E758A00758CE08054
:10019C0006758A00758CB05389FC438901438E80A7
:1001AC00D2A9439707D2AFD28C438701C28CC2AF7E
:1001BC005397F8225389FC438902538E7F7522FF93
:1001CC00D2A9D2AF90026C7DF4ED93FE1DED93F5A8
:1001DC008CFFE4C3D28C9FF58CE53343870162B06E
:1001EC0043870142B0C28C758A00DEE6E5B052222C
:0701FC00DDD7C2AFC2A9224A
:1002690020100408014002400426061A08150A1144
:100279000C0E0E0C100B120A1409160818071A078F
:100289001C061E06200622052405260528042A0523
:100299002C042E04300332043404360338033A03A1
:1002A9003C033E03400342034402460348034A0217
:1002B9004C024E03500252025403560258025A028B
:1002C9005C025E02600262016402660268026A02FE
:1002D9006C016E02700272017402760178027A0171
:1002E9007C027E01800282018401860288018A01E2
:1002F9008C028E01900192029401960198019A0153
:100309009C029E01A001A201A401A601A801AA02C2
:10031900AC01AE01B001B201B401B601B801BA0134
:10032900BC01BE01C001C201C401C801CA01CC019E
:10033900CE01D001D201D401D601DA01DC01DE01FE
:10034900E001E201E601E801EA01EE01F001F20152
:08035900F401F801FA01FE01B4
:100203007B0012021350020B0B12021350010B223C
:10021300C3E833F8E933F950066300116301A02200
:10022300900269EB540393F53362B012019D1201FE
:10023300C012023822E533422220150575320080B0
:1002430016201405753201800E20120575320280C6
:100253000620130E753203900269E532540393F5B9
:0602630033227532A522D2
:00000001FF
