:10009000E540B400051200B880F6B401051201096C
:1000A00080EEB4020512011E80E6B403051201675A
:1000B00080DE754000020090753001753101758A4F
:1000C00001758C00758900758E80758805D28C430A
:1000D000A805438F30D2AF438701C2AF900232E50B
:1000E000325403931201C365B044C3F470E11201AA
:1000F000C3E5B044C3F470F6C28CC28D858A2085F6
:100100008C211201D375400122A820A921E531F5E7
:100110003012018B1201ABD530F775400222A820B6
:10012000A921E531F53012018B43A805438F30D268
:10013000AF438702C2AF900232E5325403931201FB
:10014000C365B044C3F470E11201C3E5B044C3F425
:1001500070F6E5326B700CD530CC1201D3053175D9
:10016000400122754003221201D3E5B054C3F5B01B
:100170001201D3E5B0443CF5B01201D37540002222
:0900000002009075320202018039
:06001300753203020180BA
:060053007532010201807C
:06005B0075320002018075
:01000B0032C2
:0300630002018710
:0B018000538FCF53A8FA3253AFFB326D
:100232002010040810203048503070209014B00C68
:04024200D006F002F0
:10018B007B0012019B50020B0B12019B50010B22A7
:10019B00C3E833F8E933F950066300116301A02279
:1001AB00900232EB54039365B0F5B01201D3E5B076
:1001BB00443CF5B01201CB2275D70075D6FC800EEE
:1001CB0075D70075D6E0800675D70075D6B043AFEE
:1001DB0004438E04439707D2AF438E1043870153DA
:1001EB008EEFC2AF5397F822758902538E7FD2A937
:1001FB00D2AF9002357D10ED93FE1DED93F58CFF84
:10020B00E4C3439704D28C9FF58CE532438701629C
:10021B00B043870142B05397F8C28C758A00DEE079
:07022B00DDD5C2AFC2A9221C
:00000001FF
