:10009000E540B400051200B880F6B401051201165F
:1000A00080EEB4020512012B80E6B4030512017440
:1000B00080DE754000020090753220B2B51201E07A
:1000C000B2B5120200753001753101758A01758C67
:1000D00000758900758E80758805D28C43A805430C
:1000E0008F30D2AF438701C2AF900239E53254035B
:1000F000931201D065B044C3F470E11201D0E5B0B1
:1001000044C3F470F6C28CC28D858A20858C21127E
:1001100001E075400122A820A921E531F530120146
:10012000981201B8D530F775400222A820A921E520
:1001300031F53012019843A805438F30D2AF438781
:1001400002C2AF900239E5325403931201D065B078
:1001500044C3F470E11201D0E5B044C3F470F6E595
:10016000326B700CD530CC1201E0053175400122A4
:10017000754003221201E0E5B054C3F5B01201E06E
:0D018000E5B0443CF5B01201E075400022EE
:0900000002009075320202018D2C
:0600130075320302018DAD
:0600530075320102018D6F
:06005B0075320002018D68
:01000B0032C2
:0300630002019403
:0B018D00538FCF53A8FA3253AFFB3260
:1002390020100408014002400426061A08150A1174
:100249000C0E0E0C100B120A1409160818071A07BF
:100259001C061E06200622052405260528042A0553
:100269002C042E04300332043404360338033A03D1
:100279003C033E03400342034402460348034A0247
:100289004C024E03500252025403560258025A02BB
:100299005C025E02600262016402660268026A022E
:1002A9006C016E02700272017402760178027A01A1
:1002B9007C027E01800282018401860288018A0112
:1002C9008C028E01900192029401960198019A0183
:1002D9009C029E01A001A201A401A601A801AA02F3
:1002E900AC01AE01B001B201B401B601B801BA0165
:1002F900BC01BE01C001C201C401C801CA01CC01CF
:10030900CE01D001D201D401D601DA01DC01DE012E
:10031900E001E201E601E801EA01EE01F001F20182
:08032900F401F801FA01FE01E4
:100198007B001201A850020B0B1201A850010B2280
:1001A800C3E833F8E933F950066300116301A0226C
:1001B800900239EB54039365B0F5B01201E0E5B055
:1001C800443CF5B01201D82275D70075D6FC800ED4
:1001D80075D70075D6E0800675D70075D6B043AFE1
:1001E80004438E04439707D2AF438E1043870153CD
:1001F8008EEFC2AF5397F822758902538E7FD2A92A
:10020800D2AF90023C7DF4ED93FE1DED93F58CFF8B
:10021800E4C3D28C9FF58CE53243870162B04387F3
:100228000142B0C28C758A00DEE6DDDBC2AFC2A92E
:0102380022A3
:00000001FF
