:10009000E540B400051200B880F6B4010512011164
:1000A00080EEB4020512012680E6B4030512019722
:1000B00080DE75400002009075B20075B10075CA0F
:1000C0000075C900753001753101758B01758D00A2
:1000D0005389CF438E40D28E5388F543880543A879
:1000E00005438F30D2AF438701000000C2AF120238
:1000F000B0E5B0540FFCE5C854F04C553360F21233
:1001000001FAC28E858B20858D211201D1754001A7
:1001100022A820A921E531F530120255120275D529
:1001200030F775400222A820A921E531F530753459
:10013000A512025574A5B5342F5388F5438805439D
:10014000A805438F30D2AF438701000000C2AF1231
:1001500002B0E5B0540FFCE5C854F04C553360F2E2
:100160001201FA120289801A8534327534A51202FE
:10017000B0E5B0540FFCE5C854F04C553360F212B2
:1001800001FAE5326B700CD530A71201D10531753B
:10019000400122754003221201D1E5B054C3F5B0ED
:1001A0001201D1E5B0443CF5B01201D175400022F6
:090000000201B07532020201B6E2
:060013007532030201B684
:060053007532010201B646
:06005B007532000201B63F
:01000B0032C2
:030063000201BDDA
:1001B00075814F020090538FCF53A8FA3253AFFB93
:1001C00032758AF0758CFF800E758A00758CE08020
:1001D00006758A00758CB05389FC438901438E8073
:1001E000D2A990FE017480F0D2AFD28C438701C2B5
:1001F0008CC2AF90FE017400F0225389FC43890247
:10020000538E7F7522FFD2A9D2AF9002BE7DF4ED4E
:1002100093FE1DED93F58CFFE4C390FE017410F086
:10022000D28C9FF58CE53343870162B062C8438767
:100230000142B042C890FE017400F0C28C758A0081
:10024000DED6E5B044F0FCE5C8440F5C5222DDBFC9
:05025000C2AFC2A922AB
:1002BB0020100408014002400426061A08150A11F2
:1002CB000C0E0E0C100B120A1409160818071A073D
:1002DB001C061E06200622052405260528042A05D1
:1002EB002C042E04300332043404360338033A034F
:1002FB003C033E03400342034402460348034A02C5
:10030B004C024E03500252025403560258025A0238
:10031B005C025E02600262016402660268026A02AB
:10032B006C016E02700272017402760178027A011E
:10033B007C027E01800282018401860288018A018F
:10034B008C028E01900192029401960198019A0100
:10035B009C029E01A001A201A401A601A801AA0270
:10036B00AC01AE01B001B201B401B601B801BA01E2
:10037B00BC01BE01C001C201C401C801CA01CC014C
:10038B00CE01D001D201D401D601DA01DC01DE01AC
:10039B00E001E201E601E801EA01EE01F001F20100
:0803AB00F401F801FA01FE0162
:100255007B0012026550020B0B12026550010B2246
:10026500C3E833F8E933F950066300116301A022AE
:100275009002BBEB540393F53362B062C81201D10F
:100285001201FA22E5334222201505753400801645
:10029500201405753401800E201205753402800680
:1002A500201304753403227534A5229002BBE53270
:0602B500540393F533220F
:00000001FF
