:10009000E540B400051200B880F6B4010512011D58
:1000A00080EEB4020512013280E6B403051201A607
:1000B00080DE75400002009075B20075B10075CA0F
:1000C0000075C90043BA8090FE017401F0753001DB
:1000D000753101758B01758D005389CF438E40D2E8
:1000E0008E5388F553EF8F43880543A805438F301F
:1000F000D2AF438701000000C2AF1202C9E5B0547D
:100100000FFCE5C854F04C553360F212020CC28E5D
:10011000858B20858D211201E075400122A820A940
:1001200021E531F53012026E12028ED530F775409E
:100130000222A820A921E531F5307534A512026EFE
:1001400074A5B534325388F553EF8F43880543A81F
:1001500005438F30D2AF438702000000C2AF1202C6
:10016000C9E5B0540FFCE5C854F04C553360F212A9
:10017000020C1202A2801A8534327534A51202C90B
:10018000E5B0540FFCE5C854F04C553360F2120250
:100190000CE5326B700CD530A41201E005317540CE
:1001A0000122754003221201E053B0C353C8C312A9
:0F01B00001E043B03C43C83C1201E0754000221F
:090000000201BF7532020201C5C4
:060013007532030201C575
:060053007532010201C537
:06005B007532000201C530
:01000B0032C2
:030063000201CCCB
:1001BF0075814F020090538FCF53A8FA3253AFFB84
:1001CF0032758A7F758CFF800E758AFF758C9F80C4
:1001DF0006758AFF758C0F5389FC438901438E8006
:1001EF00D2A990FE017480F0D2AFD28C4387010068
:1001FF000000C28CC2AF90FE017401F0225389FC43
:10020F00438902538E7F7522FFD2A9D2AF7DF4901E
:10021F0002D7ED93FE1DED93F58CFFE490FE017474
:10022F0002F0D28C74FF6FF58CE533438701000029
:10023F000062B062C843870100000042B042C8901C
:10024F00FE017401F0C28C758A00DECFE5B0540F49
:0F025F00FCE5C854F04C5222DDB5C2AFC2A92253
:1002D40020100408014002400426061A08150A11D9
:1002E4000C0E0E0C100B120A1409160818071A0724
:1002F4001C061E06200622052405260528042A05B8
:100304002C042E04300332043404360338033A0335
:100314003C033E03400342034402460348034A02AB
:100324004C024E03500252025403560258025A021F
:100334005C025E02600262016402660268026A0292
:100344006C016E02700272017402760178027A0105
:100354007C027E01800282018401860288018A0176
:100364008C028E01900192029401960198019A01E7
:100374009C029E01A001A201A401A601A801AA0257
:10038400AC01AE01B001B201B401B601B801BA01C9
:10039400BC01BE01C001C201C401C801CA01CC0133
:1003A400CE01D001D201D401D601DA01DC01DE0193
:1003B400E001E201E601E801EA01EE01F001F201E7
:0803C400F401F801FA01FE0149
:10026E007B0012027E50020B0B12027E50010B22FB
:10027E00C3E833F8E933F950066300116301A02295
:10028E009002D4EB540393F53362B062C81201E0CE
:10029E0012020C22E5334222201505753400801619
:1002AE00201405753401800E201205753402800667
:1002BE00201304753403227534A5229002D4E5323E
:0602CE00540393F53322F6
:00000001FF
