:030000000200906B
:10009000E540B400051200B880F6B401051200E492
:1000A00080EEB402051200F980E6B4030512011ACD
:1000B00080DE7540000200907530017531017520B9
:1000C000FF7521FFA820A92130B50E30B40B30B246
:1000D0000830B30512019180EF882089211201EFC9
:1000E00075400122A820A921E531F53012018112C5
:1000F00001A3D530F775400222A820A921E531F5EA
:100100003012018112013D6B700CD530F41201EFF9
:10011000053175400122754003221201EFC2B5C2BC
:10012000B4C2B2C2B31201EFD2B5D2B4D2B2D2B31A
:100130001201EF1201EF1201EF7540002230B50BF2
:1001400030B41230B21930B32080F21201DF20B582
:10015000EC7400801C1201DF20B4E27401801212E2
:1001600001DF20B2D8740280081201DF20B3CE7400
:10017000031201DF30B5FA30B4F730B2F430B3F126
:10018000227B0012019150020B0B12019150010BC6
:1001900022C3E833F8E933F95008E86411F8E96458
:1001A000A0F9229001ABEB540323738006800F80EB
:1001B000188021C2B51201EFD2B51201E722C2B4F4
:1001C0001201EFD2B41201E722C2B21201EFD2B291
:1001D0001201E722C2B31201EFD2B31201E7227D6E
:1001E000017E007F0080107D047E007F0080087DFE
:0E01F000107E007F008000DFFEDEFCDDFA22C4
:00000001FF
