:10009000E540B400051200B880F6B401051200F680
:1000A00080EEB4020512010B80E6B403051201696B
:1000B00080DE75400002009075300175310175D702
:1000C0000175D600438E145388F543880543A8056F
:1000D000438F30D2AF438701C2AF120262E5B05501
:1000E0003360FA1201C6538EEF85D72085D62112D0
:1000F00001A375400122A820A921E531F5301202A3
:1001000009120229D530F775400222A820A921E55D
:1001100031F5307534A512020974A5B5342453881D
:10012000F543880543A805438F30D2AF438701C20A
:10013000AF120262E5B0553360FA1201C612023BFB
:1001400080128534327534A5120262E5B0553360F1
:10015000FA1201C6E5326B700CD530BA1201A30554
:100160003175400122754003221201A3E5B054C34A
:10017000F5B01201A3E5B0443CF5B01201A37540FF
:0201800000225B
:090000000201827532020201883E
:06001300753203020188B2
:0600530075320102018874
:06005B007532000201886D
:01000B0032C2
:0300630002018F08
:1001820075814F020090538FCF53A8FA3253AFFBC1
:1001920032758AF0758CFF800E758A00758CE0804E
:1001A20006758A00758CB05389FC438901438E80A1
:1001B200D2A9439707D2AFD28C438701C28CC2AF78
:1001C2005397F8225389FC438902538E7F7522FF8D
:1001D200D2A9D2AF9002707DF4ED93FE1DED93F59E
:1001E2008CFFE4C3D28C9FF58CE53343870162B068
:1001F20043870142B0C28C758A00DEE6E5B0522226
:07020200DDD7C2AFC2A92243
:10026D0020100408014002400426061A08150A1140
:10027D000C0E0E0C100B120A1409160818071A078B
:10028D001C061E06200622052405260528042A051F
:10029D002C042E04300332043404360338033A039D
:1002AD003C033E03400342034402460348034A0213
:1002BD004C024E03500252025403560258025A0287
:1002CD005C025E02600262016402660268026A02FA
:1002DD006C016E02700272017402760178027A016D
:1002ED007C027E01800282018401860288018A01DE
:1002FD008C028E01900192029401960198019A014F
:10030D009C029E01A001A201A401A601A801AA02BE
:10031D00AC01AE01B001B201B401B601B801BA0130
:10032D00BC01BE01C001C201C401C801CA01CC019A
:10033D00CE01D001D201D401D601DA01DC01DE01FA
:10034D00E001E201E601E801EA01EE01F001F2014E
:08035D00F401F801FA01FE01B0
:100209007B0012021950020B0B12021950010B222A
:10021900C3E833F8E933F950066300116301A022FA
:1002290090026DEB540393F53362B01201A31201EE
:10023900C622E533422220150575340080162014A4
:1002490005753401800E20120575340280062013CD
:1002590004753403227534A52290026DE5325403E6
:0402690093F53322B4
:00000001FF
